:020000040000FA
:200000000050002055030000EDFE00006903000013FF00008103000013FF00000000000019
:2000200000000000000000000000000013FF000013FF00000000000013FF000013FF000078
:2000400053B94AB9002908BF00281CBF4FF0FF314FF0FF3000F074B9ADF1080C6DE904CECA
:2000600000F006F8DDF804E0DDE9022304B070472DE9F0478C460446089E002B4BD18A4261
:20008000154667D9B2FA82F24AB1C2F1200701FA02F320FA07F7954047EA030C94404FEAA6
:2000A000154EBCFBFEF71FFA85F80EFB17C307FB08F9210C41EA0343994509D9EB1807F15C
:2000C000FF3180F01C81994540F21981023F2B44A3EB0903B3FBFEF00EFB103300FB08F113
:2000E000A4B244EA0344A14209D92C1900F1FF3380F00781A14240F2048102382C4440EAA2
:2001000007400027641A1EB10023D440C6E900433946BDE8F0878B4209D9002E00F0EC8027
:200120000027C6E9000138463946BDE8F087B3FA83F7002F48D18B4202D3824200F2FB808D
:20014000841A61EB030301209C46002EE0D0C6E9004CDDE702B9FFDEB2FA82F2002A40F0FD
:200160008F800127491B4FEA15481FFA85F9B1FBF8FE08FB1E1109FB0EF04FEA144C4CEA12
:200180000143984207D9EB180EF1FF3102D2984200F2CD808E461B1AB3FBF8F008FB10335D
:2001A00009FB00F9A4B244EA0344A14507D92C1900F1FF3302D2A14500F2B6801846A4EB7A
:2001C000090440EA0E409EE7C7F12005BB4022FA05FC4CEA030C21FA05F44FEA1C4EB4FB75
:2001E000FEF91FFA8CF80EFB194420FA05F3B94009FB08FA19430B0C43EA0444A24502FA29
:2002000007F200FA07F30BD91CEB040409F1FF3080F08880A24540F28580A9F102096444F2
:20022000A4EB0A04B4FBFEF00EFB104400FB08FA89B241EA0444A24508D91CEB040400F1B4
:20024000FF316BD2A24569D90238644440EA0940A0FB0289A4EB0A044C454146CE4654D39D
:2002600051D0002E69D05A1A64EB0E0404FA05F522FA07F3FC401D43C6E90054002747E71F
:200280009540C2F1200321FA03F04FEA1548B0FBF8F71FFA85F908FB170024FA03F39140DF
:2002A00007FB09FC0B43190C41EA00418C4504FA02F407D9691807F1FF3031D28C452FD92F
:2002C000023F2944A1EB0C01B1FBF8F008FB101C00FB09FE99B241EA0C418E4507D969181B
:2002E00000F1FF3318D28E4516D902382944A1EB0E0140EA07473AE73746304608E70F461D
:20030000E6E61846FBE64345ABD2B8EB020169EB0C0201389646A4E71846E8E7084695E72E
:200320000746CFE781467BE702382C4447E7AEF1020E2B442FE7384607E73746E8E600BF0F
:20034000704700BF034613F8012B002AFBD1181A01387047034B40F20000C0F200000068F5
:20036000854618478D030000044B1EF0040F0CBFEFF30880EFF3098018477047EFFE0000B0
:200380000022014B1A60FEE7780E002070B510F0EFFC0FF0C3F80021124B134A934214D389
:2003A000124A134B9A4203D01249043A8B420FD30025114E114CA41BA410A5420DD101F082
:2003C000ABFABDE87040FFF7CFBF43F8041BE5E752F8040F43F8040BE8E756F82530984781
:2003E0000135EAE7C80A0020303C0020DC1F010020050020E8090020D40D0100D40D010062
:2004000010B5164B164C1B78236801215B68154898470122236811461B68124898470CF058
:2004200049F911480BF0EEFC00B1FEE70FF0DFFD01F020FF01F044FF06200FF06CFD0DF0FC
:2004400021FD0BF0F9F80CF09DFE0DF043FC07200FF061FDBDE8104008F0BEB82C3C002050
:20046000D801001000400340F40D010007B501F099FF00F03DFA002302A820F8023D4FF03F
:20048000FF3202210FF0FBFD18B941F23423ADF80630BDF8060000F0F5FA0821054800F0DB
:2004A00043FE02F023F806200FF035FD03B05DF804FB00BF742D00207FB5082200210DEB99
:2004C0000200CDE9001110F040FC08210DEB010000F02AFE294D9DF80E309DF80F40EE6A58
:2004E00044EA03244AF6CD310220B04721460320B0470822224C6B6B0DEB02010B2098475C
:200500002368022B07DD1F4A1F49204802F082FD1F4802F07FFDAD6A69460120A84723685F
:20052000022B08DD1849174A184802F073FD0099184802F06FFD01A90220A84730B923689F
:20054000022B03DD0199144802F064FD2368022B02DD124802F05EFD2368022B09DD0A4916
:20056000084A0A4802F056FD0D4B0E48198802F051FD07200FF0CFFC04B070BD080F010019
:20058000FC060020101C01001E1C0100231C0100321C0100541C0100631C0100C41F01006D
:2005A000722D0020721C010010B5104A86B001AB92E8030083E80300194603A80BF0EEFD11
:2005C0000446002214210BF087FD012010F0D8FB0122142120460BF07FFD4FF40C7010F013
:2005E000CFFB20460BF044FD06B010BDD40D010030B50B4D89B003ACFFF7D6FF0FCD0FC48B
:200600002B6803A9684623600BF0C8FD0446B9210FF0BDFC20460BF02BFD09B030BD00BFE0
:20062000DC0D010010B50D4B1B6843B14FF480720B4B1A6000220B4B1A6001F01BFC0A4BE8
:200640001B6823B1BDE81040084B1B681847084B1420BDE810401B681B6A1847A00024432F
:2006600004200940A002244380002443D8110020B001001010B58CB008F098FB04466846CF
:2006800008F0CEF86B460022154903A808F0F8F903A808F0A5F9134B1B6803B9FEE71B6D8C
:2006A000114A136003B9FEE7104914200EF026FC0F4BE0211B6814209B6898470D4B24218D
:2006C0001B6801201B6898470B4A2046136823F4E02343F44033136008F070FB0CB010BDBB
:2006E000F3FF000008ED00E0D811002025060000B001001084010010002009400122024BD0
:200700001860024B1A6070471C200940A0022443014808F0DFB900BFDC11002010B5064C99
:20072000236823F00203236008F0DCFB236843F00203236010BD00BF10E000E07FB503A843
:2007400008F06EF8002203AB124913488DF80C20049208F095F901A808F0CEF9029B0F4A8A
:20076000DB09013B13600E490F200EF0C7FB0D4B1A6842F002021A601A6842F002021A60E4
:200780001A6842F005021A600122074B1A6007B05DF804FB23000100DC11002014E000E025
:2007A0003500010010E000E00400244338B501F00DFD60B30FF020FC054601F00FFD2B1A25
:2007C000002B044617DB01F085FC002500F044F8044608F099F9B4FBF0F1A94228BF29464A
:2007E000C1B14B1C05D00C4808F078F90A4808F005F901200FE008F087F9C2010748641B2D
:200800000023A4FB0001FFF71BFC0546DEE74FF0FF35DBE7084638BDDC11002040420F00E2
:20082000014B1868704700BF082009401FB50EF079F901A80EF0BEF90123002001A98DF8F0
:2008400008308DF809000EF095F9024B186005B05DF804FB0012002007B50D4B186810F0B2
:20086000010012D0684608F047F90A4B0A491868019A0023A0FB0101FFF7E2FB40F2DC53F8
:20088000984294BF0120A0F2DC5003B05DF804FB08000840040008400048E80110B5064C61
:2008A0004FF47A7120680EF091F901462068BDE810400EF087B900BF0012002070B5094C8D
:2008C000236873B1084D26682878B0472368B34207D1064B2946BDE87040012218680DF0E2
:2008E00027BB70BD04120020C03400200812002070B50F4E8AB03578BDB901A80DF00AFBDB
:200900004FF4E133012407930A4B01A9284604938DF804408DF805508DF819408DF818405F
:200920000DF0D8FA044B347018600AB070BD00BFC1340020BD08000008120020054B0A4623
:200940001B7823B1044B014618680DF0F5BA4FF0FF307047C13400200812002008B50549EF
:2009600005480BF01BFC054B05491860BDE808400BF0CCBBCC050020101200200C12002022
:200980006F00010070B506460BF0C6FB0446064D014628680BF056FC04F4E02131432868FC
:2009A000BDE870400BF080BC0C120020F8B51C4D0C462F6806460BF0AFFB014638460BF0BD
:2009C00041FC04F00303012B17D0022B154B18BF4FF00043E10648BF43F04043220612D534
:2009E00004F00C04082C0AD00C2C14D0042C0AD143F0004343F4C02305E00B4BEAE743F0EF
:200A0000004343F4A02346EA030228680749BDE8F8400BF0A9BB43F0004343F4E023F2E7BF
:200A20000C120020004000800020008000600740064B1B68C340DB074CBF054B054B1B688A
:200A400023FA00F000F00100704700BFD020024080200240C020024010B5094B9C68D9688E
:200A6000D3E90020A2EB701280EAF43018600C4410441144D8605C60996080B210BD00BFE1
:200A80001C12002010B51424054B064AC3E902001A605860FFF7E0FF013CFBD110BD00BF21
:200AA0001C120020ED5EEAF17FB503A80AF058FA00238DF8103003934FF0FF3305930123EC
:200AC0000B494FF440024B8000230A48CDE90023094B03AA0AF048FA084B1880033080B297
:200AE00001288CBF0020012007B05DF804FB00BF20060020C80A0020010B0000702D002076
:200B0000F8B50E4B16461B681B79ABB9002302F40002134302D00A4801F094F9002506F4C6
:200B2000800454EA050307D00122064B04481A70BDE8F84001F086B9F8BD00BF54120020C3
:200B4000D0050020C334002038B50B4A5388013B9BB2012B94BF012500250BD840F20443BD
:200B6000064C5380B4F90010012205480AF0A4FB00232380284638BD20060020702D00205E
:200B8000C80A002030B5144D87B001224FF0FF3128460AF09FFB03A80AF0E2F94FF0FF3361
:200BA000059301230D4900244B80002200232846CDE90023234603AA8DF8104003940AF02C
:200BC000D3F928460AF030FB054801F011FB2046044B1C7007B030BDC80A00204012002023
:200BE00058120020C23400202DE9F04300244FF00108002600274FF0FF3987B003A80AF000
:200C0000AFF9134D13492346A1F8028003AACDE9006728468DF810400394CDF814900AF0E5
:200C2000A3F903A80AF09CF90B4923460C61A1F8028003AACDE9006728468DF810400394F5
:200C4000CDF814900AF090F9204607B0BDE8F083C80A0020401200202C12002040F6090270
:200C600001210A4B1A805A7B61F303025A7340F60A02074B1A805A7B61F303025A730549F1
:200C80000346054A054809F039BA00BF401200202C12002070060020F8050020C80A00204F
:200CA0002DE9F04786B0FFF74FFF2A4B80461B68294C1B791BB303A80AF052F94FF0FF3278
:200CC000002005920021012200236280CDE9000103AA214621488DF8103003930AF044F94E
:200CE0000446B8F1000F01D0FFF7DEFEE01C80B201288CBF0020012006B0BDE8F087042571
:200D000000260027A146DFF854A0012363800023CDE900671A46494650460AF06DFA002384
:200D200000F00F02134308D040F6090263889A4203D1013D15F0FF05E7D1B8F1000F01D020
:200D4000FFF7B2FE608880B2B0F5806018BF0120D2E700BF54120020E0050020C80A002061
:200D60002DE9F04F87B0044603A80AF0F9F84FF0FF324FF0000805924FF00009012200232B
:200D8000294DCDE900896A80294603AA27488DF8103003930AF0E8F8C31C9BB2012B8246D4
:200DA00003D8012007B0BDE8F08FFFF7CDFE204E074633681B7933B30FF01CF9A0220C34B5
:200DC000A4B262431B4B1C4CD203134493FBF4F300EB43046B8803F4406373B14FF0000A7D
:200DE0000FB1FFF761FE33681879A0B16B889BB2B3F5505FD5D10020D4E70FF0FBF8001B3C
:200E00000028E7DBEAE7514642464B4607480AF0EBF98246E4E74FF000090AF00F0858EA0C
:200E20000903BFD1BDE700BF50060020C80A00205412002020A15F0240420F002DE9704349
:200E4000274E86B073880546013B012B36D9B8B103A80AF085F84FF0FF32002305924FF036
:200E6000000801224FF000091E491F484A800B6103AACDE900898DF8103003930AF074F84E
:200E800003A80AF06DF800238DF8103003934FF0FF334FF44002059300230124CDE900231B
:200EA0000F49124B03AA104874800AF05DF8104B1880033080B2A0420DD90DB900200BE044
:200EC0000C4B1C700C4B1B681C79002CF6D10B4800F0B8FFF2E7204606B0BDE8708300BF87
:200EE000200600202C120020C80A0020010B0000702D0020C234002054120020D005002002
:200F000010B50B4A5388013B012B0FD840F20443084C5380B4F90010012207480AF0CCF9FF
:200F20000023833818BF0120238010BD0020FCE720060020702D0020C80A00202DE9F84322
:200F4000038805460C46002B3ED0B3F5537F5CD182293ED12F4B1A787AB100221A70FFF7F6
:200F60007BFD4FF4A061B0FBF1F303FB110189B201F5AF4128480FF0F7F8822C2CD1274C79
:200F8000274EA146FFF78AFC01F078FC276901F009FC8021B8473378074643B14FF00008BB
:200FA00086F80080FFF7ACFF4046FFF747FF002F05DDB8B201F0DAFB1A4BDB689847D9F837
:200FC0001C3098470028DDD14FF453732B8001201EE08829FBD1BDE7882CF5D10E480FF04D
:200FE000D5F80028F0D0FFF737FD0446FFF758FE4FF4A063B4FBF3F103FB114189B201F522
:20100000AF4105480FF0B0F8DEE7002303800320BDE8F883C234002058120020080F010086
:20102000C3340020E419010010B5244B00245A79C3F85C0202F0FC0200F0030060F383029C
:201040005A71862203F19401196093F899101C7101F0FC0160F3830183F8991003F5947174
:20106000C3F8941093F82D11DA8001F0FC0160F3830183F82D1103F5DE71C3F8281193F8AA
:20108000C11183F8984001F0FC0160F38301A3F89A2083F82C41A3F82E2183F8C04183F848
:2010A000C111A3F8C221C3F8BC31C3F85032C3F85442C3F8583203F5147010BD6812002082
:2010C000F8B500252E460A4C04F108077819D4F85C2200210FF039FE63199435B5F5147FBC
:2010E0001E71F3D1C4F85042C4F85842F8BD00BF68120020014BD3F8580270476812002029
:2011000038B5084C0021D4F85852D4F85C2205F108000FF01AFE00232B712B68C4F8583200
:2011200038BD00BF68120020082910B517D800230C4A8B4207DB0C4B00220B44013B8A4284
:2011400008D1002010BD9C5CFF2C01D10133F0E7044BF1E79C1A247884540132EFE74FF030
:20116000FF30EFE7C83F0050F01200502DE9F041174C23681B6B984780F0010010F0FF05B2
:2011800005D0236840F6010118680AF0BFF809F0DFF8104B07461A780F4E4AB100221A7078
:2011A00037609DB12368BDE8F04118680AF03CB833688342F4D9D4F800800EF01BFF226860
:2011C000C8F82800D36A0133D362E9E7BDE8F0815412002096090020C814002010B5FFF79F
:2011E000C5FFBDE81040044B044A186804490023083000F0C7BE00BF54120020DD110000C9
:201200006F0C010010B5FFF7B1FFBDE81040044B044A18684BF2F4210023083000F0B2BEC8
:2012200054120020DD1100002DE9F8430746144C0E46FFF79BFF2368B7F1404FDB6A984673
:2012400009D90EF0D7FE23689A6A0E4B9B1AC34201D518F1FF380020F2194FEAE67545F12C
:201260000003841848EB0305290243F609520023200241EA1461FEF7E3FEBDE8F88300BF3B
:20128000541200208690F3FE034B588880B2831E58425841704700BF2006002059B10C2893
:2012A00007D1042A07D1054B0020D3F804310B607047012070470220704700BFCC1400204E
:2012C00038B5104C054694F8FC300BB1FFF78CFCC8234FF47A716B4303F5522202F6953296
:2012E000B2FBF1F398B201FB13231B04B3FBF1F3054A9BB2D0811382FFF7D2FC08B9A4F88D
:20130000FA5038BDCC140020E005002070B5194B5A881C4692B2022A28D05B889BB2012BF8
:2013200006D00020FFF78AFDF0B144B2204670BD00250EF05FFE6FF03F06361A63889BB264
:20134000022B03D00EF056FEC642F7D463889BB2022B0DD1084B186809F0DCFF0446002D07
:20136000E4D0FFF7CDFDE1E70125E2E70025F1E70124DBE720060020CC14002013B50191BE
:2013800000296BD018286BD8DFE800F00D166A6A2B5238464A6A6A6A6A6A5255575C6A6A33
:2013A0006A6A6A6A66002F4B93F8FC30003318BF01230B6000201FE04FF47A734FF6FF744E
:2013C000294AD089128A03FB02424343A3F55223A3F6953303EB1243C822B3FBF2F3DBB222
:2013E000E7E700201F4B08601B79002BE2D0019A136843F00403136002B010BD1B4B01AA69
:201400001968184B18680EF06EFE18B9019B1B687F2BCFD10320EFE7124B93F9F830C8E70B
:20142000FFF774FF019B1860019B1B688033F0E700200860E0E72123BBE70C4B1B6893F9EB
:201440000030B6E70A4B094A1B68126803EB8303134413F9053CACE77D23AAE70220CBE76A
:201460000120C9E7CC140020E0050020D0190100D419010010B5054C94F8FC3023B1FFF726
:2014800081FB002384F8FC30002010BDCC1400207D2908B50A4605D8014603480FF031FCCA
:2014A000002008BD0120FCE7021500202DE9F34188460746FFF71EFE05460EF09BFD294C3F
:2014C000241A2B79022B03D10EF094FDC442F8D42E79F6B2032E04D12C89052C03D8FFF7BC
:2014E0000FFE00203BE0063CA4B24445F7D80A352246294638460FF004FC2B571A4F0A2B01
:2015000087F800316FF06302A8BF0A239342B8BF13466E226433C3EB032393FBF2F304228A
:20152000611C29440DEB020087F801310FF0E9FB40F6C8210198FFF777FE3B79C7F8040198
:2015400053B997F90011042089B201F0E1F997F80111304601F0DCF9FFF7D2FD204602B0FA
:20156000BDE8F081FAFEFFFFCC14002008B50C4B5B889BB2022B11D0FFF7C8FE10F1800FC1
:201580000AD0084B93F9F8308342CCBF00200120B0FA80F0400908BD0220F9E70020FAE7AE
:2015A00050060020CC14002010B5094C94F8FC304BB9FFF785FD0120FFF740FC012320B917
:2015C00084F8FC3010BD0020FCE71846FAE700BFCC14002038B5072855D8DFE800F004127F
:2015E000545433471E50012906D1FFF7DDFF08B9002000E0032038BD002946D1FFF73AFF40
:20160000F6E788B2222828BF1A20214BB3F8FA308342EDD0FFF754FEE9E71E4B4AB2196887
:2016200091F90030934230DC1B4B1B6803EB83030B4413F9053C934227DB154B18680EF061
:2016400044FDD4E731F004051FD1114BC1F380041A791C719442CBD093F8FC30002BC7D0D6
:20166000FFF74EFC2846FFF7E9FBC0E731F001000BD1074B01F0010283F8FD20BBE7044B6E
:2016800083F8F810B4E70120B5E70220B3E700BFCC140020D0190100D419010010B5FFF761
:2016A00029FD002403461A791B68023A012A98BF01349842F7D12CB1034B1B7913B9034816
:2016C00000F0C0FB204610BDCC140020D00500207D2870B5064620D8114C63889BB2022B67
:2016E0001BD0104D95F8FD308BB9331D85F83430002385F83530B31C9BB223820A4B3046E2
:20170000E361FFF72DFB003018BF012070BDFFF72DFF0028E9D10220F8E70120F6E700BF50
:2017200050060020CC1400200015002030B52D4B2D4C89B0236322682C4B1C60002A4CD1A5
:20174000A6232B4984F8F8300B7E2A4D62F30203DBB243F008030B7640F262330B84052384
:20176000254881F82430254B1021C5E90432836140F203732B83AB7EC17361F30503AB7696
:20178000FC23022084F8FC20AB77FFF74DFC04F1EC03A86201A8EB6209F0AAFD4FF4FA63EB
:2017A00001A80193FFF75AFA2060C8B11A20FFF787FD134B7E21186809F026FE114BC0F34C
:2017C00015029A42014602D0206809F0B5FDFFF719FD00210C4800F01DFB002009B030BD7B
:2017E0000120FBE789120000CC14002054120020F805002020060020500600204E905500B9
:20180000D0190100FFFF3F00D005002010B5084C94F8FC3043B1FFF779FD10F1800F03D018
:2018200094F9F830834201DD002010BD0120FCE7CC1400202DE9F041154A164BDFF86CC055
:2018400052F8040C52F8201C634552E9035452E9078E52E90576196002F12002C3F804801B
:20186000C3F808E0DF601E615D619C6103F12004D8610BD1084A1A62084A5A62084A9A62F5
:20188000084ADA62084A1A63BDE8F0812346D7E7600F010000C00021603953632010101AB4
:2018A000136F236E11161216546B007080C6002108B54FF47772144914480FF022FA002251
:2018C000134B1A70012203F8172C022203F81B2C032203F8192C04229A770522DA7606221E
:2018E00003F80F2C072203F8432C082203F8252C092203F8232C0A2203F8202C0B2203F899
:20190000582C044A1A6308BDF41501001C040021900300217906002138B5634CFEF770FD16
:20192000FEF70CFF0EF01EFC00F0F0F900215F4800F070FA00F0F0FAFEF778FF0EF02BFC29
:2019400000F0E0F8FEF792FD01F098F900F0E8FE00F084FA2368022B07DD554A55495648FE
:2019600001F058FB554801F055FB2368022B09DD50494F4A504801F04DFB514B51481968EE
:2019800001F048FB2368022B09DD4A49484A4A4801F040FB4C4B4D48196801F03BFB236833
:2019A000022B09DD4349424A434801F033FB484B4848196801F02EFB2368022B09DD3D4970
:2019C0003B4A3D4801F026FB4AF6CD31424801F021FB2368022B08DD3649354A364801F00C
:2019E00019FB1A213D4801F015FB2368022B09DD30492F4A304801F00DFB394B394819886B
:201A000001F008FB2368022B07DD294A29492A4801F000FB344801F0FDFA2368022B02DDF8
:201A2000324800F015FB2368022B02DD304801F0F1FA08222D492F480FF063F900212E4838
:201A400000F0E8F94FF0FF3004F0A2F923680546022B07DD164A1749174801F0DBFA27487D
:201A600001F0D8FA2368022B03DDD5B1A81C00F0DFFA2368022B02DD1D4801F0CBFAFEF751
:201A80001BFD1F480EF08FFB0EF0DDFA00F056F90446FEF703FF14F0FF0FF7D10EF068FAB0
:201AA000F4E72846E3E700BFFC06002000070020AF1C01001E1C0100231C0100B41C0100F3
:201AC000101A0100EB1C0100001A0100FA1C0100E4190100051D0100101D01002A1D01000A
:201AE000722D00204A1D0100571D0100742D0020C41F0100803B00209C0700206C1D01007D
:201B0000641A0100CD2182B0064B02AA42F8043D934204D30021044802B000F07BB903F8C4
:201B2000011BF5E7303D0020DC06002038B5FEF7B5FE0C4C0C4D2378CD2B0CD0AC4207D3A1
:201B4000FEF7ACFEAC4234BF281B4FF0FF3038BD0134F0E701342378CD2BF1D1AC42F9D30F
:201B6000EEE700BF303D00200050002070B5038805460BB3912B37D11D480EF007FB10B32F
:201B8000FFF7D4FF1B4C1C4B061EA4EB030401DB002C1ADA194B1B68002B09DD184A19493C
:201BA000194801F037FA22463146184801F032FA0F480EF0E2FA04E04FF4A0610C480EF09B
:201BC000D3FA91232B80012011E0A642F0DD0B4B1B68002BECDD0A4A0A490B4801F01AFA46
:201BE000224631460A48E1E700230380032070BDD415002000500020303D0020FC060020CE
:201C0000901D0100961D0100231C01009A1D0100C41D010038B5836804460D469BB10A4875
:201C200004600220A07304F10C0098470238012801D9832D05D121462046BDE8384000F08E
:201C400005B80123A37338BD641700202DE9F8431C4F89463D682C46844204D00CB9BDE857
:201C6000F8832468F8E7002CF9D0174EA37BD6F8008063B10023A3738DB9A3683BB14C459D
:201C800005D034602A46832104F10C0098473B68A3420ED123683B60C6F80080DFE7AC4268
:201CA00004D02246872128460EF056FA2D68E3E71346002BF0D01A68A242F9D122681A60AD
:201CC000EAE700BF6817002064170020002238B50125084B1A70084B1C6804B938BDE37B41
:201CE0002BB1E581002282212046FFF793FF2468F3E700BFC734002068170020024B187833
:201D0000421C1A70704700BFC53400208A22064B1A700023054A1370054A1370054A13603C
:201D2000054A1360704700BFC5340020C4340020C634002068170020641700202DE9F0419F
:201D40001B4D2B780BB1FFF7C1FF1A4C22789AB10C21194E194F3378013A59430133781879
:201D600003F01F0317F801803370D0E90170227090B9134B1E6826B92B7820781844BDE817
:201D8000F0812B780BB1FFF7A1FF30463A4641460EF0E2F93668EEE7B8F1810F08BF0123F0
:201DA0003A4608BF837341460EF0D6F9E4E700BFC7340020C6340020C4340020E4150020A2
:201DC00068170020F0B50B4E3378202B0FD00C25094C0A4F24781C4404F01F046C433D199A
:201DE000C5E901200020013339553370F0BD0120FCE700BFC6340020C4340020E4150020D4
:201E000038B5034C25680EF0A7F9256038BD00BF6417002030B40A4C0A4625682B4683423A
:201E20000CD04BB950B101210560817320608381812130BCFFF7E4BF1B68F0E730BC70479E
:201E40006817002038B1837B013B012B9FBF0123014AC37313707047C7340020034A9179E5
:201E6000D379034A03EB012313807047742D0020722D002010B5084C206858B1002323609D
:201E8000D0E901319847236823B1BDE810401868FEF734BC10BD00BF6C170020F8B5038858
:201EA00006461546CBB14A2B2BD188291FD117480EF0F3F90446C4B1231D9D421FD121466F
:201EC00012480EF0F4F9124D62692F682A60A2690AB1E06990472F6007E00C480EF0DDF9EE
:201EE000044634B901220B4B1A704A23338001200AE0A168201D0EF037F92468F1E7246819
:201F0000D9E7002303800320F8BD00BF7017002064170020C834002010B50024054B0648DF
:201F20001C700EF0B7F92146BDE810400348FFF771BF00BFC834002070170020EC06002006
:201F400070B50446E3610B4B049D1B78C4E905526BB1094D094B2E68201D2B600EF004F921
:201F60002E602146BDE8704005480EF0B3B9A160F7E700BFC834002064170020EC060020F9
:201F80007017002013B5034C24680094FFF7D8FF02B010BD6417002070B5094B05461B7825
:201FA0003BB1084C084B2668043023600EF0E5F826602946BDE8704004480EF08BB900BFD7
:201FC000C834002064170020EC0600207017002010B5084B04461B7843B1043000F008F983
:201FE0002146BDE8104004480EF061B9C0E90333F6E700BFC83400207017002010B50A4BC9
:2020000004461B7823B1BDE8104004300EF0BEB806480EF042F908B9012010BDA04201D089
:202020000068F8E70020F8E7C83400207017002000B58BB002462821684601F0E7FD6946E4
:20204000024800F0E7FF0BB05DF804FBFA1D0100F8B5054688B9BDE8F8400A4800F0DABF48
:20206000E30702D4384600F0D5FF295D3046013400F0D0FF082CF3D1F8BD0024024E034FFB
:20208000F3E700BFFD1D01000E1E01000C1E010010B50E4C236813B90D4A136010BD0DF02A
:2020A000ABFF2168D1E9002313448A681B1A1AB91844074B1860F1E7D2E900142144091A6A
:2020C0008B4228BF0B469268F1E700BF78170020741700200148FFF7B5BE00BF0007002078
:2020E0002DE9F8430388054653B1592B47D1872920D1002024490B6863B918B10B6001E047
:20210000214A1360592301202B80BDE8F88301203346F1E7D3E902649442F8D000B10B602B
:2021200099680029EED0C86890420ABF89680B469960F5E78229E5D1134F4FF00009B846CC
:2021400000263C68002CDDD020460DF0EDFF98B122468821E068FFF735FE58B9E060A36866
:202160002EB1B360C4F80890FFF792FFE8E7C8F80030F7E7FFF7AEFF2646A468E2E70023EE
:2021800003800320C1E700BF7817002010B50446FFF7A0FFE3680B4A0BB1136833B90A4BC7
:2021A0001B68E36013681460A36004E0A34206D1054A1268DA60BDE81040FFF769BF9B68AE
:2021C000ECE700BF7817002064170020024B1868003018BF0120704778170020024B1868FB
:2021E00008B1024B18687047781700207417002010B50B4A04461368834208D1836813606D
:20220000FFF746FF0023C4E9023310BD1346002BF8D09A68A242F9D1A2689A60F0E700BF1B
:202220007817002010B50446FEF7FAFAD4E900321344C01A024B98428CBF0020012010BD57
:20224000FEFFFF7F014601480EF044B87C17002038B5054606480EF020F8044604B938BD2E
:20226000A068284002D0636803B198472468F5E77C17002008B503480EF00CF8BDE80840AC
:20228000FEF76CBB7C170020C20708D50B4A1378527803F1804303F508336AB91A708307FE
:2022A00009D5064A9378D27803F1804303F5083302B101221A7070470122EFE7961C0100EE
:2022C000F8B501240E4F0F4D3E7806F06FFD2B6804FA06F223EA020313432B6006F06EFD7E
:2022E000BE7806F063FD2B68B44023EA040323432B6006F063FDBDE8F8400320FFF7C4BFF7
:20230000961C0100D020024070B505880446672D09D0792D31D0002D35D1FFF7EFFC1C4B4D
:2023200018701C4B1D601C4E1A4D0AE00A282B6810D00D280ED07E2B03DC5A1C2A60174AD5
:20234000D05430460DF040FF431CEFD16723238001201BE05A1C2A600025104A2846D55429
:202360000B4B1978FFF72EFD0D4B2A4685211868FFF728FD18B97923E9E78529E8D1002286
:20238000044B1A60CFE700230380032070BD00BFC93500208017002084170020C93400205C
:2023A0006417002008B50549054880220DF005FFBDE8084000210348FFF72CBD49350020B1
:2023C000841700201007002010B5044690F84C30084A013380F84C30802103462030FFF74E
:2023E000D1FD054B2246BDE8104019780020FFF7E9BC00BFC9230000CA350020F8B5038814
:202400000446ABB1B3F5867F28D1822913D10DF032FEBFF35F8F0022124B1E681A60BFF3E3
:202420005F8F0DF02AFE104D104F55F8040F20B94FF486732380012013E090F8453026FA84
:2024400003F3DB07F1D5FFF7D9FD0028EDD02B683A4602211846FFF795FDE6E7002303809E
:202460000320F8BD981700201C05002089240000034A1368184310600248FFF7E3BC00BF96
:20248000981700202007002070B50446FFF7B6FD20B304F120063046FFF7B0FD0546204656
:2024A0000DF037FF012811D1C5B1002523460C4A84F84C507E213046FFF764FD2246094B44
:2024C0002846BDE870401978FFF77CBC30B92DB93046FFF77DFD2246034BF1E770BD00BF4B
:2024E000C9230000CB350020CC3500202DE9F843FFF704FC1F4B01271870FFF7FFFB1E4BF5
:202500001E4C1870FFF7FAFB1D4B1E4D18700023A3601D4B1D4E6360296839B91C48FFF7EA
:2025200079FCBDE8F8431548FFF78CBE8B6C91F8459043F08C0806F039FC336807FA09F9C4
:2025400023EA0903336006F039FC2B68414693F84500FEF72BFA2B6893F84500FEF712FA3C
:2025600055F8043BA26893F8453007FA03F31343A360D1E7CB350020CC3500208C170020B9
:20258000CA3500202005002071240000D02002402007002010B50848FFF7FEFC074800F085
:2025A0006FFA064C00B910BD037A01465B080372204600F041FAF5E75C18002030070020E6
:2025C000014601480DF027BF30070020F8B531F0020307460E46154630D1014618480DF0BD
:2025E0001AFF044658B94EBB334609223946144800F062FA044608B30DF0AFFEA0800DF0C7
:20260000FBFC237A20602B44102BA8BF10232046022E237208BF0C350DF08DFE002814BFAC
:202620000A221922ED01ADB25543A388C2F1640101FB03556423B5FBF3F5A580F8BD00BFFF
:202640003007002038B50546042000F069F9294604B20E480DF0DFFE034658B9092229462C
:202660000A4800F029FA024618B1C4800DF075FE908038BDB0F906200A205A21604301FB18
:202680000202642192FBF1F2DA80F2E73007002038B5084800F0F4F90446064D04B938BD4E
:2026A0002146284600F0B2FA2146284600F0C4F90446F3E73007002010B50021054800F089
:2026C000A3F9BDE810400023034A4FF4E1310348FFF758BC30070020952500005C180020AA
:2026E00070B505460D480E460DF0D7FD044600B970BD012D0AD1A3681BB920460DF006FE71
:20270000F4E7304698470028F7D0F1E7002DF4D16368002BF1D09847F5E700BF7C180020EB
:20272000054B10B51B689847044B5B689847BDE81040034B5B681847080F0100E4190100B6
:20274000001A010010B507490B88834208DB064C80B222880244181A08800120228010BD50
:202760000020FCE77C2D00207E2D0020014B1880704700BF7C2D00200048704780180020E8
:20278000014B1888704700BF7C2D0020034A044B10781B781844C0B2704700BFCD350020F1
:2027A0007E2D002008B5FFF7F1FF014B184408BD8018002070B50D4D0D4C2A782388064615
:2027C0001344802B0FDC0B490EF09BFA2B781E44FFF7E8FF2288014630460EF092FA2878B2
:2027E0002388184470BD0020FCE700BFCD3500207C2D00208018002008B5FFF7C7FF024B7A
:202800001B88184480B208BD7C2D002010B50146FFF7F2FF4318802B0FDC094B013800B2D6
:202820005A18040405D5074B187808441870012010BDC45C14540138F3E70020F8E700BF47
:2028400080180020CD35002038B5094D094C1A22002109480EF079FA294620460DF09EFD7A
:20286000294604F10800BDE838400DF097BD00BF081C0100802D0020902D00200023044A7F
:202880001380044A1380044A1370FFF7DDBF00BF7E2D00207C2D0020CD35002038B50C46AD
:2028A0000546FFF7EBFF802C28BF80242946224603480EF026FA034B20461C8038BD00BF72
:2028C000801800207C2D002010B50C461A2205490EF017FA2046BDE81040102202490EF0F1
:2028E00010BA00BF902D0020802D002010B50C461A22014604480EF004FA2146BDE8104067
:20290000102202480EF0FDB9902D0020802D0020024B23F810100120704700BF902D0020E1
:20292000014B33F810007047902D002008B5044B0D3803EBC0000DF031FD012008BD00BFAD
:20294000802D0020024B0D3803EBC000704700BF802D0020014902480DF023BD081C010091
:20296000882D002030B1054B9B68C01A044B8010584370474FF0FF30704700BF40070020F8
:20298000ABAAAAAA38B50D4D002818BF05460C480DF083FC044610B94FF0FF3038BD211D79
:2029A00028460DF0FEFC20B12046BDE83840FFF7D9BF20460DF0AAFCECE700BF081C010010
:2029C0002019002008B502460DF0FDFC42B1431C06D0044B1268185C104100F0010008BD37
:2029E0000020FCE7EE35002050B10368072B06D8044A52F823301B1A5842584170470020EB
:202A0000704700BF0019002010B50446FFF7ECFF10B1A160012010BD054A1368072BFAD899
:202A2000581C1060034A2360A16042F82340F1E7E419002000190020F8B505460C460C2799
:202A40000E4E214628460DF0BEFC431C16BFB368002007FB00300DF059FCFFF783FF0146DC
:202A600028460DF0A6FC044628B101462846FFF7A9FF0028E5D02046F8BD00BF40070020B5
:202A800038B505460B480DF008FCFFF76BFF014628460DF08EFC044601462846FFF792FF88
:202AA00028B921462846BDE83840FFF7C5BF204638BD00BF201900202DE9F0470D469046E0
:202AC0009946064618B900242046BDE8F087494B002908BF1D462846FFF754FF421C04460E
:202AE0004FD1454C20460DF08FFB074600283CD14946404604F09AFA0028E4D0FFF742FF06
:202B0000431C4ED0A3680C2404FB0034002C48D03A4B1A5C02B11F540027DFF8ECA0204675
:202B20005AF82720FFF71EFF014682B1D2F80880B8F1000F0BD010460DF03BFC01468146F2
:202B40001046FFF73FFF012801D14846C0470137082FE4D12046FFF705FF0022284B2146DB
:202B60001A5428480DF0A3FB2746394625480DF0B1FB3846FFF7F6FE29460446381D0DF067
:202B80000DFC214630460DF014FC0446726800210EF0DBF801232246314619480DF01EFCB1
:202BA00092E718480DF079FB002402462746DFF84C80DFF84C9012B9002CADD183E7104667
:202BC000FFF7D0FE18F800304BB919F8001059B90CB1BB4203DA1446002B9DD01F46104676
:202BE0000DF094FB0246E6E7C80748BF01334910EDE700BF081C010040070020CE3500208F
:202C0000EE350020201900200019002070B50A4604460D460023014605480DF0DFFB0646F3
:202C200000232A46214603480DF0D8FB304670BDEE350020CE3500200A4601230146014872
:202C40000DF0CCBBCE3500200A460023014601480DF0C4BBCE35002008B50DF0B4FB431C63
:202C600007D00C22044B9B6802FB003000B1043008BD0020FCE700BF4007002008B50448F4
:202C80000DF0B2FABDE8084002480DF0ADBA00BF580700204C07002001480DF0EDBA00BF93
:202CA0004C07002038B50E480DF0AEFA054650B10C480DF0A9FA0446286030B929460848FF
:202CC0000DF0B6FA2546284638BDFFF773FD04F19C01A4F8800004F18200FFF7F5FDF2E72D
:202CE0004C0700205807002010B50146044607480DF0B4FA48B1216805480DF099FA2146CC
:202D0000BDE8104001480DF093BA10BD4C0700205807002010B50146044609480DF09EFA30
:202D200068B12468B4F880102046FFF7B7FD04F19C0104F18200BDE81040FFF7D7BD10BD4D
:202D40004C070020F8B50DF057F9002504460E4F0D2007EB0516FFF7F5FD31460DF021FB88
:202D600068B10720FFF7DCFD337B83420AD1B068201AB0F5206F8CBF00200120F8BD0135F9
:202D8000102DE5D10020F9E7081A002070B5144D00242E460D20FFF7D5FD05EB04110DF0E9
:202DA00000FB013408B9102CF4D12401103C0FD10720FFF7B5FD30730DF01EF9B0600D200D
:202DC000FFF7C0FDBDE87040014605480DF0E6BA60191022A0F110010DF093FFE6E700BF52
:202DE000081A0020014B1888704700BF940900202DE9F041012986B006460F46144603DCF1
:202E0000002006B0BDE8F08103A90DF067FC0A2203A904F110000DF074FF9DF81130002B6C
:202E200044D0B51C02AA01A903A80DF019FB9DF81380B8F1000F4CD0029B23B16A7815F83F
:202E4000023B03EB0223B8F1020FA38332D1324920460DF0A3FA6B78237015F8023B637031
:202E60009DF81580B8F1000F4DD0019B002B37D06A7815F8023B03EB0223029A9BB2E383F7
:202E800002B9A383B8F1020F2DD1234904F108000DF084FA6B78237215F8023B6372A81B5B
:202EA0003B1A8742C4E90E53AADBAAE7B378F51CA376B7E7B8F1030FD2D105F10802134626
:202EC000611E13F8010D9D4201F8010FF9D11546C6E7114920460DF061FAA4F81C80BFE7AA
:202EE000A38BE383CEE7B8F1030FD8D105F10802134604F1080113F8010D9D4201F8010BD1
:202F0000F9D11546CBE7044904F108000DF046FAA4F81E80C3E700BF081C010030B591B065
:202F20000546FFF75FFF4FF6FF73984204D14FF0FF34204611B030BD4022002168460DF0D8
:202F400004FF274B1A782AB901221A70FDF784FD244B18707DB10720FFF7E2FC58B9214CC7
:202F600023780BB90123237021780720FFF7D0FC237801332370FFF7EDFC6A46C1B21A48F3
:202F80000DF029FCFFF7E6FC08B34FF6FF73ADF800300D20FFF7D6FC014602A80DF0FEF916
:202FA000FFF700FC0E90FFF7EBFB0F9068460DF006FB0446002DBCD0FFF728FC0028B6D08F
:202FC000FFF7DAFB014668460DF041FBB1E70E20FFF7B8FC014668460DF0E0F9D9E700BF3E
:202FE0000E3600200F360020212900001FB51446074ACDE90001029221461A4602A8CDF8BE
:203000000CD000F031F80022009B1A7004B010BD5F0801000FB407B504AA52F8041B0448A9
:20302000019200F021F803B05DF804EB04B070476407002070B505460C460A4E102C07D8D2
:2030400074B12B68224668680649BDE8704018472B68102231466868984710B9103CEDE7A9
:20306000204670BD401E01002DE9F04F0746144600258FB00791079B1B78B3B1DDF81C805C
:2030800000E0B046464616F8013B0BB1252BF8D1079B98450ED0A8EB03094A463B680799E0
:2030A0007868984728B14FF0FF3528460FB0BDE8F08F4D4498F80030002BF6D098F80130B1
:2030C000002BF2D04FF0000A314611F8012B33462B2A16D00AD8202A16D0232A17D0A2F181
:2030E000310008283FD84FF0000918E02D2A04D0302AF4D14AF0100A01E04AF0010A0E4600
:20310000E2E74AF0060AFAE74AF0020AF7E74AF0080AF4E70A2303FB0929A9F130093346C7
:2031200016F8012BA2F130010929F3D91A782E2A35D159785A1CA1F13000092828D8002643
:2031400011781346A1F13000092802F101021AD91A786C2A40F092805A786C2A22D14AF0B2
:20316000800A023321E02A2A0AD1D4F800900B46B9F1000F04F10404B8BF4AF0010AD5E785
:203180004FF00009D2E70A2303FB0616303ED7E72A2903D1266802330434D9E713464FF041
:2031A000FF36D5E701334AF0600A1A78642A00F0988000F28B80462A00F0B58077D8252AEE
:2031C00000F0C6806CD8002A3FF46FAF013307930AF4E063B3F5806F00F05C8200F2BB8059
:2031E000B3F5807F00F0F080B3F5407F7FF443AFB24B1AF4804FB24A18BF1A460DF13303BB
:2032000000211E462068043450EA010C40F07A82F61A04BF302203F8012C4FF0780208BF29
:2032200003F1FF3303F8012C4FF0300208BF012603F8022C23220336B1458CBFA9EB060956
:203240004FF000091AF0010AA3F1030803F8032C06D149463846FFF7EDFE00287FF423AF16
:203260003B68324641467868984700287FF41BAF3544BAF1000F00F03C82B2E1682A09D1A8
:203280005A78682A02D14AF0200A6AE701334AF0400A8AE77A2A04BF4AF0600A013384E76F
:2032A000412A4CD0452A91D14AF4424A8EE7582A33D004D8472A89D14AF4A13A86E7612A3A
:2032C0003AD0632A82D14AF4A06A7FE76E2A3CD00AD8662A24D029D3672A2AD0692A7FF4BF
:2032E00075AF4AF4245A71E7732A2BD007D86F2A10D0702A7FF46AAF4AF4407A66E7752A9C
:2033000005D0782A7FF462AF4AF4C85A5EE74AF4106A5BE74AF4885A58E74AF4B24A55E73E
:203320004AF4007A52E74AF4844A4FE74AF4024A4CE74AF4813A49E74AF4C13A46E74AF4D0
:20334000E13A43E74AF4806A40E74AF4E06A3DE74AF4C06A3AE7B3F5C06F2BD0B3F5E06FDB
:2033600000F0DF81B3F5A06F7FF485AEB9F1010F38BF4FF0010923681AF0010604F104040D
:203380008DF8203009F1FF3807D141463846FFF751FE00287FF487AE45443B68012208A935
:2033A0007868984700287FF47EAE002E00F0A181414617E13B680122424978689847002890
:2033C0007FF471AE013556E6002EACBF2AF0100A01261AF400520AF0E003069243D0402BA2
:2033E0003AD009D8002B3AD0202B11D000220023CDE90023002319E0602B30D0802BF5D14B
:20340000073424F0070303F10804D3E9002303E094F90020D3170434002A73F10001E7DA72
:20342000524263EB4303CDE90023012305930AF4C053B3F5805F00F0EB80B3F5C05F00F025
:20344000EC80B3F5006F40F00381DDE900230DF1360BCDE9022348E0B4F90020DAE72268F2
:203460000434D317D8E7402B1FD009D8FBB1202B14D00023002205930023CDE90023D6E7BF
:20348000602B14D0802BF4D1073424F0070303F10804D3E90023CDE9002304E0227800239B
:2034A000CDE900230434069BC0E72288F7E72368002219460434CDE90012F4E7601E0100C5
:2034C000711E0100931E0100DDE902010A220023FCF7B6FDDDE9020130320BF8012D00236D
:2034E0000A22FCF7ADFDCDE90201DDE902231343EAD10DF13603A3EB0B030293029B41F612
:2035000008029E4288BFF61A41F208030AEA020298BF00269A4202D1002E08BF012641F6B5
:203520000801029B8A42334440F09680DDE900120A4300F091807D491AF4804F7C4A08BF06
:203540000A464FF002080092069A82B1059A002A40F087800AF00602022A00F08780062A18
:20356000744A009904BF11464FF001080091434499458CBFA9EB03094FF000091AF001035B
:20358000059304D11AF0100F74D04E449946D7E90030B8F1000F05D042460099984700283B
:2035A0007FF481ADB246029B1D44BAF1100FD7E9003066D8BAF1000F05D052465E499847CF
:2035C00000287FF470AD3B68029A594678684544984700287FF467AD059B3544002B00F02A
:2035E000888049463846FFF725FD002800F0818059E502F0070130310BF8011DD10841EAC7
:203600004371D8080A46034652EA0301F1D170E7DDE900230DF1360BF6E7484B1AF4804FAF
:203620000DF1360B464918BF1946DDE9002352EA03003FF45EAF02F00F00085C4FEA131C51
:203640000BF8010D100940EA037002466346EEE70DF1360B002350E74FF00008CDF80080B8
:2036600072E74FF00108374A009280E74FF00108354AF9E749463846FFF7DCFC002886D02F
:2036800011E510222C49984700287FF40CADAAF1100A8AE7D4F800B00434BBF1000F2CD0C9
:2036A000D84698F8003008F1010223BBA8EB0B08002E02DBB04528BFB046C1458CBFA9EBEA
:2036C00008094FF000091AF0010606D149463846FFF7B0FC00287FF4E6AC3B684246594603
:2036E0007868984700287FF4DEAC4544002E7FF478AF4D44BFE49046D3E7DFF850B04FF0BB
:203700000608D5E700F00F0C12F80CC04FEA111E03F801CD4FEA101C4CEA017C6046714658
:2037200072E5236804341D60A5E400BF821E0100851E01008A1E0100501E0100601E0100CE
:20374000711E0100881E01008E1D01008C1E010070B590F82D100546012994BFCC1C052418
:20376000FDF77AF90121A1400139B0FBF1F42B4604FB1101034A05F10C00BDE87040FEF7FA
:2037800001BC00BF053800002DE9F0470D4614468B688046D3E90067506B92F82C900CF09D
:2037A00086FD6868FFF7A0FAA96812480CF040FD294611480CF03CFD606B0CF06EFD60B142
:2037C00000232046A385FFF7C3FF4B46424639463046BDE8F0470CF037BE04F10C00FEF7AF
:2037E000F7FB214605480CF062FD214604480CF01FFDEAE76C07002084070020681B00204B
:20380000780700202DE9FF470446002800F0BB80406B0CF042FD0546002800F0B4804068EB
:20382000FFF778FA59490D20FFF780F801210820FFF76EF800F0D8F9002866DBFEF79CFF83
:20384000534E90F802907768FEF796FF8046FEF7D3FF01464046B847FFF77CF8D6F818801B
:203860000746C04708B101200BE09FB1B3680193FEF7C2FF019B984788B102280CBF0120B0
:203880000420AA68002A7ED0032848D8DFE800F03F5C4A7BF36998470028E7D0E3E7002F05
:2038A000EFD10CF0A7FB6FF0D90AF769AAEB000AB84720B90CF09EFB1AEB000FF8D4C04715
:2038C000D0B10CF097FB6FF04008A8EB0008B84720B90CF08FFB18EB000FF8D4B84790B11B
:2038E0003369032103A898470328BCD19DF80E304B45B8D10020C4E7B8470028E1D173695A
:2039000098470028DDD00220BBE70520B9E7002094F82C3084F82D00013384F82C30224645
:2039200029460EE0002384F82D3094F82C300133DBB284F82C30127A9A421ED82246294678
:203940000220FFF721FF1EE094F82D300133DBB2052B84F82D3007D9002194F82C3084F819
:203960002D10013384F82C3094F82C10137A994203D3224629460120E3E72046FFF7E8FEF4
:2039800068680CF05BFD04B0BDE8F087742D0020080F01002DE9F04107460E208846FEF7D5
:2039A000D1FF454B05461A78444C22B901221A70FDF752F8207023780BB901232370217835
:2039C00007204B1C2370FEF7A3FF01210C20FEF79FFF3B480CF061FC0446002840D139486E
:2039E0000CF012FC044600285BD02946201D0CF0D5FC002304F13000C4E90C30A3850CF052
:203A000049FC21462E480CF065FC606B0CF077FC072846DC2C480CF0F7FB0546002834D0C3
:203A20002A480CF0F1FBA86058B3FFF73BF9686018B30620AE68FEF773FFC0B2D0B1307224
:203A4000C6E900782946606B0CF044FC606B0CF024FC85422DD12046BDE8F041FFF778BEB5
:203A60002946201D0CF09DFC0028CED120460CF04DFCB1E708233372E2E7A96813480CF0FA
:203A8000D7FB294610480CF0D3FB606B0CF037FC38B921460A480CF00AFC214609480CF069
:203AA000C7FB41463846BDE8F041012304220CF0CBBCBDE8F08100BF1036002023360020E8
:203AC000681B002078070020840700206C07002008B505480CF088FB04480CF085FBBDE870
:203AE000084003480CF080BB840700206C07002078070020014B1B6A184700BF080F010018
:203B0000014B5B6A184700BF080F01000C4B13B51B6898470B4B044601A918209B6A984777
:203B200001280BD0002CB8BF152401988028D4BFC4EB0000C4F1800002B010BD0020FBE76C
:203B4000D8190100080F010007B5064B01A918209B6A984718B9FFF7BBFFFFF7CBFF03B094
:203B60005DF804FB080F010013B5FEF709FE032831D000F045F800282DDB0E20FEF7E2FE89
:203B800016490CF00EFC10B30D20FEF7DBFE13490CF007FCF8B9FFF7D5F8044608B9FFF732
:203BA000F5F80820FEF7BCFE60B10223ADF80430FEF7E2FD837803218DF80630084B01A888
:203BC000DB6898473CB9074B9B68984703E0FEF7C1FE0028D8D102B010BD00BF742D002033
:203BE000080F0100001A010010B501210C20FEF78FFEBDE81040014B5B681847D8190100A8
:203C0000014B9B68184700BFD81901002DE9F04F814687B015468846002965D02AB9334A0B
:203C200007B0BDE8F04F0CF02EBE1488DCB95388D3B99488BCB9D388B3B914894CBB4FF628
:203C4000FF7352899A420FD1EA7B2B7B0292AA7B01926A7B0092264A0CF015FE044620465E
:203C600007B0BDE8F08F002427462646DFF888A0DFF888B0AB19AA5D5B7803EB02239BB260
:203C8000ABB9002F15DB06D001370236102EF1D1E5E71C46E8E7A8EB040109EB04005A462E
:203CA0000CF0F1FD0444A045D9D90127EDE7002F17DC09EB0400A8EB04013EB1524605936E
:203CC0000CF0E1FD0444A045059BC8D9A8EB040109EB0400074A0CF0D6FD0444A045D4D813
:203CE000BDE74FF0FF37F1E70C46B8E79A1E0100A91E0100BF1E0100BD1E0100BC1E0100CC
:203D0000B8220C4BF0B502FB0032002340F24C5553821E461A460849CC18A77827B15F5C28
:203D2000874204BFA67001327133AB42F4D11046F0BD00BF441C00202F3600200122044B1F
:203D4000FD211A70002299705A70DA70704700BF2436002010B5134C0220A179FEF7D8FD62
:203D6000A379112B09D1218D638D994228BF1946BDE810400120FEF7CBBD062B06D10A4B62
:203D80001B8828331A19195B5388EEE73A2B06D1054B28341B88195B49BA89B2E8E70021A1
:203DA000E6E700BFD81D00201033002070B513780546087A83F0020398421FD1487A5378B3
:203DC00098421BD1887A9378984217D1C87AD378984213D1087B137998420FD1487B5379AB
:203DE00098420BD1887B9379984207D1C87BD379984203D10320A840C0B270BD0E4C0B8977
:203E0000206826467BB94B89B3F57F4F0BD18B89FE2B08D102220E310CF073FF23680220C0
:203E200002332360E7E7082211440CF06AFF3368012008333360DEE7B41D002010B5074CC0
:203E400001462378012B04D10822A01C0CF04AFF08B1002010BD2046FCE700BF243600202C
:203E600008B501460E20FEF761FD044B00219B6803489847BDE80840FCF710BDE419010075
:203E800031460000F8B5154A154D164C2B7817680E46154922680144F8180CF032FF236870
:203EA0002878184480B2FEF761FCFEF7FBFE044608B90020F8BD3046FFF7D2FF2046FEF71C
:203EC00029FF2046FEF710FF084B1B68012BF0D0043B012BEDD90120ECE700BFC81D0020A5
:203EE0007B3B0020C41D0020D81D0020BC1D002000232DE9F04F184E184D87B033702B7025
:203F00000446FEF7BBFCFEF74DFC154A154B126818600096A84603930AB1FFF71BFFCCB952
:203F2000114904A80CF03AFA042002F0D3FB01460620FEF7EDFC04A90E20FEF7F7FC0B4B03
:203F40009B6998470A4B0028186013DC002007B0BDE8F08F2146E4E77C3B00207B3B0020C0
:203F60003C1C0020C81D0020081C0100E4190100C01D0020039BBA4E196898F80030084471
:203F80000233CA18326026328242DFD20022B548CA54FFF753FF002800F03181802433681D
:203FA00001333360B04D697828780B0943EA0013DAB2930843EA82135BB200F00F02080762
:203FC000DFB240F024816888002840F020811AB911F0F00F00F03A814FF07009336803F8C6
:203FE000017B3360AB79112B06D02BB13C2B03D0A3F12B02012A01D849F0040919F0040F3F
:2040000004BF326802F8013BEB7908BF3260402B00F01F81FF2B00F01F81012B40F0388186
:2040200049F001092B89002B40F037816B89002B40F03381AB89002B40F02F81EB89002B95
:2040400040F02B812B8A002B40F027816B8A002B40F02381AB8A002B40F01F81EB8A002B08
:2040600040F01B8144F040042B7EFF2B40F07D816B7E44F00807022B6A8B306840F0428122
:20408000002A40F06981AA8B002A40F03C81EA8B002A40F038812A8C002A40F034816A8C4D
:2040A000002A40F03081AA8C002A40F02C8195F82620002A40F0278195F8273044F00B04BC
:2040C00000F8013B30602823009A684D13703368634F029300230193654A3B6812687DB16C
:2040E0002E78112E00F0E481002E00F0C2813C2E00F0C5812B2E00F0B5812C2E00F06581D6
:2041000098F800109B1A02F8019011444C700E2004A988F80030574CFEF708FC009B56484E
:2041200021881B7898F800700568CA1AD019A84240F35F82EF1B043F27F00707053DD21B6A
:20414000521B002AC8BF02F1FF3425F00706CABF94FBF6F402240334FEF79EFDA0427FF7B2
:20416000F5AE002FFFF6F2AE0022444B414C1A60434BB3F8009009F101021A80039B98F892
:2041800000201B681946181D01930CF0C5FD98F8003004A9043388F80030039B1A68238877
:2041A00082F803901B0A63F03F031370238853704FEA19239370009BDFF8D0901878C9F8AC
:2041C0000070FFF75FFE00283FF4C0AE052388F80030039B1A6823881B0A63F01F03137093
:2041E00023885370009B1878D9F80030184423881FFA80F8434500F2E5810120A7E6214896
:20420000FFF71CFE00287FF4C9AE0446CAE630688AB911F0F00F0ED123F03F030B4300F82D
:20422000013B022218490CF06CFD33684FF0680903333360D6E604220B490CF062FD336818
:204240004FF0600903F8047B3360CBE64FF07809C8E649F00209E5E649F00309E2E600BFAF
:20426000B41D0020F01D0020D81D0020DE1D0020C81D002012330020C01D0020BC1D002090
:204280000A330020E01D0020DA1D0020C41D0020326802F8013B3260C4E67D48FFF7CEFDFA
:2042A0007C4B186090B1039A98F80030116802334078CA5C42EA0012CA540420764A744998
:2042C000FFF774FD60F03F00C4B2CDE648F2FE032A899A420DD16B8B5BB9AB8B4BB9EB8B5D
:2042E0003BB96D4A6A490420FFF760FD0443E4B2BAE61022664930680CF003FD3368103319
:204300003360B1E642BBAA8B32BBEA8B92B92A8C82B96A8C72B995F824205AB900F8013B6A
:2043200003225E490CF0EDFC336844F00A0404333360C8E6EA8B7AB92A8C6AB995F8222027
:2043400052B900F8013B052255490CF0DAFC336844F009040633EBE7102252490CF0D1FC0A
:2043600033683C4610333360ADE64E48FFF766FD484B0146186090B1039A98F80030106860
:204380000233C25C497844F004040A43C2540020444904AAFFF70AFD0443E4B293E648F282
:2043A000FE032A8B9A4208D16B8B33B9AB8B23B9EB8B13B904AA3B49ECE71022394930680B
:2043C0000CF09FFC33681033B2E702260199364D01F1280A55443449344895F801B011F88D
:2043E0000A1000684FEACB0B11290BF1080B02440AD049B13C2907D02B39012904D90133EE
:204400009342BFF4A3AD3B60386800EB0B039A427FF69CAD5A4629460CF073FC3A685FFA81
:204420008BF3991E517001995A445944019100993A6009780B4400990B701B4B13F80A305D
:20444000112B23D013B33C2B20D02B3B012B8CBF00230123760066F01F061E43029B029269
:204460001E7039E60199104D01F1280A55440126B1E701990C4D01F1280A5544ABE7019940
:20448000094D01F1280A55440326A4E70123E1E7E01D0020401C0020803B0020FD1D0020BB
:2044A000FB1D0020F01D0020D81D0020C01D00204FF2B00B0199DFF874E101F1280A3AF86D
:2044C0000E500AEB0E06290A41EA0521758889B24FEA052C4CEA152C524D581C2D68386098
:2044E0002A4421F00F05ADB25D451FFA8CFC2DD12CF00F0BAB4529D1F32102980170991C95
:204500009142BFF423AD3AF80E203960100A7288120A02EB001202F5AA625A70424B414939
:2045200038681B680968821C0B449A42BFF40EAD0222B11D0CF0E5FB3B68009A02333B60D5
:20454000009B00251B7808331370C5E50CF47F4CBCF5704F11D1F121029D04339A42297026
:204560007FF6F4AC022231460CF0CBFB72883B68120A9A7003333B60D0E701F47F41B1F523
:20458000704F11D1F22102980170191D8A427FF6DDAC3AF80E20120A5A7002229818B11879
:2045A0000CF0AFFB3B68E5E7F021029D05339A4229707FF6CBAC042231460CF0A2FB3B68C4
:2045C0000433D8E7A3EB08039D42B8BF3346164A4FEAD80112684046117104A9C9F80030EB
:2045E000FFF750FC00283FF4B1ACD9F800004044FDE59942FFF4AAAC0B4908680B493844D2
:2046000019440CF07EFB238898F800001844009B1B78C01A80B2FEF7A9F804A8FFF720FCA3
:20462000EBE500BFC01D0020C81D0020D81D002070B5124B0C461B68154613B19B6808460D
:2046400098470F4B0E201C60FEF77CF90D4906460BF0A7FE80B92A4621463046FDF7B6FF9C
:20466000094B214630462A465B6C984729462046BDE870400CF090B970BD00BF3C1C002020
:20468000BC1D0020081C0100101A01002DE9F84380468946FEF774F8114B1E78841B631E78
:2046A0006D2B1AD8002371210E4F01FB03F2BD18A87878B90C4BD01C196885F80190AC7059
:2046C00085F800802246314438440CF01AFB2046BDE8F88301330C2BE7D14FF0FF34F6E77B
:2046E0007B3B00202F360020C81D00202DE9F04115090F2D0646984602F00F0434D00F2C4B
:2047000037D01DB12A4630460CF0FBFA2A190F2A274605DCC2F11002002170190CF015FBA8
:20472000D4B1DFF85880C7F110002246D8F8001030440CF0E6FA022C05D10A2D9FBFFF232A
:20474000F372FE233373D8F800202244C8F80020BDE8F0811024D5E7002DF9D041463046FE
:20476000BDE8F0410CF048B90F2C00D110241025C8E7002DEED110273C46D2E7B41D0020F3
:204780002DE9F8438046894617464B4D002A57D02B8A83420AD16B8A43B10D20FEF7D2F8C3
:2047A000014628460BF0FDFD002840D1B5F8C83043453ED1B5F8CA30002B3AD00D20FEF7DC
:2047C000C1F801463D480BF0ECFD90B301245FFA84F839464046FFF759FF00281DDA6E8AC9
:2047E0004EB15CB336480BF09FFC064618B10020FFF786FA0646B5F8CA3043B13CB9314897
:204800000BF092FC18B10120FFF77AFA0644002E0FDD39464046FFF739FF002809DDB8233B
:2048200003FB0455AB8A64B21844A88203E00024CDE74FF0FF342046BDE8F8832646DAE770
:204840006B8A33BB0024B5F8CA308BB31D480BF06BFC10B10120FFF753FA631C2AD1B5F859
:20486000CA30002BE7D10124B8266643AF19A7F81290A7F810800D20FEF764F80146384634
:204880000BF08CFD06F11800402128440BF045FCD1E705F118000BF047FC28B96B8A002B77
:2048A000D0D04FF0FF34CEE73846FFF729FAF5E70134D8D00024D7E7441C0020FC1C002047
:2048C0005C1C0020141D00202DE9F04F002789B0BD4EBE4D0D20FEF735F8FDF7B3FE377089
:2048E0002F70FDF75FFFBA4CA8462060FDF748FFA1460196002800F0508101F0FFFE04209F
:20490000FEF70EF8B34B00B2186023681C8864BAA4B2221202F0F802C02A0AD0E02A00F0F3
:2049200001813E464FF4A0633C460493AA4F354617E058882B78C4F30A0440BA04333A46AE
:20494000214680B22B70FFF71BFF421C064600F02481B827A14B012507FB0037942322379A
:20496000049300229E4BD9F800101A7098F80020885C00F0F00CBCF1F00F04BF00F00F003C
:2049800018701B7804BF013288F80020012B00F2048198F8003011F803A00AF0E002602AF1
:2049A00040F08B829A1C0B4493F801808D484FFA88F90A44B9F1000F0260BCBF0132026091
:2049C0001AF0100F83460AF0080040F01781DBF80030591C002840F0E3800322781C0CF033
:2049E00090F9DBF8003013F8041BCBF800308B0803F00F0242F060023A707A7803F0300321
:204A000043EA811302F00F0213437B701AF00403039305D1734A136813F8011BB971136018
:204A20001AF0030A0BBF6F4A6F4B136813F80A3009BF13F8011BFB711360F97118F0400FD3
:204A4000C8F3011300F00981B9F1000FB7BF5F4A002211785E4ABFBF12685218927812095B
:204A6000002B40F0E98007F1080A002B40F0F0809B465E4A0D20D25C0292FDF763FF594630
:204A800003465046029AFFF731FE08F0030208F0040318F0080800F0EC80ABB9544B1B8860
:204AA000ADF81C30531E012B06D84E490B6813F8010B8DF81D000B6000234E498A5C07A90C
:204AC00007F11800FFF712FE019B019A1B78DFF814A1283313700022D146BB1D07F1280853
:204AE0000292039ADAF80010002A00F094810A7802F0F000E02800F0EE8002F0F802F02AA4
:204B000040F0898111221A7091F800A00AF0F303F03B032B00F29780DFE813F030014301E4
:204B20009801AA01588893F804A02B7840BAC4F30A0405335246214680B22B70FFF720FEA8
:204B4000431C064629D0B823244ABB4603FB0023B3F814900125A14534BF4FF000094FF071
:204B60000109FDF70DFEDFF8648098F80030834213D8FDF705FE019B98F800101B78421ADF
:204B800003EBCA0A1C489244BAF5A06F0260804640F2BA81F0B2FFF7B3F809B0BDE8F08FA6
:204BA00060223A701A78930803F0300302F00F02134302227B70B8180CF0A3F8DBF80030A4
:204BC0000333CBF8003021E77C3B00207B3B0020C81D0020B81D0020D81D0020441C002068
:204BE0002E360020B41D0020CF1E0100D31E0100F00D0100DB1E0100C41D002088B9DBF853
:204C000000301A78C2F3830242F060023A7013F8011B78808A0802F0300242EA81127A70DC
:204C2000CFE760233B8000237B80EFE690F801C0944506D1086016E7AC4801780129AC49A3
:204C4000F4D000230B604FF00009AB46CA4688E7A74A116801F1020B0BE7A64A0D2012F8C8
:204C600003A0FDF76FFE52460346A34907F1080009E733B3B9F1000F08DAA04B1978A04B8B
:204C80001B680B4493F8028008F00F08DFF85C9299F80030012B964B03D199F80110414597
:204CA00002D000221A60CEE7C3F80090954B0E2013F80280FDF746FE4246034609F10201E5
:204CC000FEE68C4B0E2013F80280FDF73BFE424603468949F4E6C2F3420012F0010201F1C6
:204CE000010C039204BF4A780231CAF800C008BFCAF80010DAF8001018BF002211F801BB9F
:204D0000CAF8001003289ED8DFE800F0031502132C201870A8EB0703023304985B44834296
:204D200091DC0BF10203DB10D8B233B988F8013089E73C20EDE72B20EBE7431E88F8013024
:204D400088F8002008F102005A46CDF814800BF0D8FFDAF80020019B5A44CAF8002098F84F
:204D6000012018780132D200D1B208441870029B90441944CBB20293059BB2E602220131B8
:204D800040460BF0BEFF0222D9F8001008EB020003310BF0B6FFD9F800300533C9F80030CD
:204DA00012E00222013140460BF0ABFFD9F80020D3780432A3F580539BB21B0243F0F00313
:204DC000A8F80230C9F800201AF0040F0BD10222D9F8001008F106000BF093FFD9F8003095
:204DE0000233C9F80030FDF7CBFC454AD9F800301268002C56D0029BA4F12800C01A80B210
:204E000003021BB2000A1843019B019A1B78A8F80400083313703A4AD9F800301268DFF859
:204E2000DC809B1A88F80030002C40D1FDF7A8FC98F80030AB46C01A019BA1461B78A24653
:204E40001844283803123B7178718AE6404602224B781144A3F580539BB21B0243F0F003BF
:204E600020F8023B0BF04DFFD9F80030043395E74B7802311B09A3F575639BB21B0243F0BB
:204E8000F003A8F8003011F8013CC9F8001003F00F03A3F575639BB21B0243F0F003A8F893
:204EA000023091E79B1AC3F108031844A7E7A4F128031A123A717B71C5E6BAF1410F7FF44E
:204EC0006CAE0133DBB228221944384688F800300BF017FF98F80030019A283388F80030AB
:204EE000019B1B7828331370ADE600BF24360020401C0020D71E0100C21E01007B3B0020B0
:204F0000C81D0020D31E01002FB13B4800680144F8180BF0F6FE002C5DD0BBF1000F0BD09C
:204F2000019BD8F800201B7834491344B82202FB06129BB293821384B9F1000F50D0B823E2
:204F400073432E49CF18788A3A8CBC829042FFF421AEB0F5A06F3FF61DAEDFF8AC90223387
:204F6000194448460BF0CDFE40F24C5B388C7A8A0027DFF898A0121A002148440BF0E5FEF2
:204F80000AF103030AEB07018A7882B117F80A0086420CD14878C0008118B1F5A06F3FF71C
:204FA000F9ADD919484402930BF0ABFE029B71375F45E7D1F0B2FEF7A3FEA5B1104B1C806E
:204FC000104C236823B1FEF7C5FE23685B68984700F05EFCE1E535B1B9F1000FEED1DCE502
:204FE000002D7FF4DAAD019BD8F800201B781344034A1380E4E700BFC81D0020441C002025
:20500000123300203C1C0020D81D00202F3600202DE9F04F944C85B0E379FF2B40F0218157
:20502000924E04F12C0533885A191279FF2A00F0188104F128073B445B78002B40F011819C
:205040008B4A142113608B4B91469846DFF838A2198004F1080B3288874BB8F800E002F1E7
:205060002C00B3F800C000EB0E016145C0F28C802044043000F076FE804B18609A460028F4
:2050800000F0EF8023897BB963896BB9A3895BB9E3894BB9238A3BB9638A2BB9A38A1BB99E
:2050A000E38A002B00F0DD80DFF8E081404600F059FEC146002840F0D48040F2FF23228B52
:2050C00008F1100B9A4240F0B980638B002B40F0B580A38B002B40F0B180E38B002B40F076
:2050E000AD80238C002B40F0A980638CB3F5807F40F0A48094F82430FF2B40F09F8098E88D
:205100000F008BE80F0033881D44043595E80F0088E80F0001F0F2FA6023282152482360D8
:205120000BF0AFFC4FF63A738822E3803388DAF80010FA52E0222C33E018E25402311022ED
:2051400004300BF0DEFD022233884D494033E518E254A81C6A7008220BF0D3FD062200214E
:2051600005F10A000BF0F1FD002233883B445A800BF0BCFBC04333881F447880502001F0E4
:205180009FFA05B0BDE8F08F0EEB02032C33E2185278002A65D0E35C012B28D123892144A8
:2051A000C9F8001073B9638963B9A38953B9E38943B9238A33B9638A23B9A38A13B9E38A82
:2051C000002B4ED0082202310DEB02000BF099FD58460BF091FB0246CAF8000090B90523FE
:2051E0000190009302A90223584600F083FCB8F80020338813442B445B7802EBC302A8F838
:20520000002028E700F096FC014650B3D9F80000082202300BF066FD50B102A950460BF0CB
:2052200081FB00281DDBDAF8003002225A74DEE7DAF800305A7C002AD9D1F6E7114800F047
:2052400091FDDAF8003083420BD199E80F008BE80F0033881D44043595E80F0089E80F00AA
:2052600058E701F04BFA8CE7D81D002010330020D41D00200C33002012330020CC1D0020F0
:20528000803B0020F01D0020D01D0020E01D0020014801F00BB900BF9007002073B5114DE2
:2052A000064628460BF0F1FB0F4B20221C8805F10801001B80B2ADF80600BDF806003044E7
:2052C00080B20BF0F7FA04F12801BDF8062029440BF0F0FA18B140BA80B202B070BD4FF64C
:2052E000FF70FAE7D81D002010330020F8B5022106464578194FED000835481CA84201DB51
:2053000000200CE07218547802340C44AC4207DD134B0420D21A022101F0CEF80220F8BDB4
:20532000735C012B0AD00BD3632B0BD003F0C003802BEDD0C02B0CD0402B08D0A1B2DCE713
:2053400081B2DAE7BB6B304698470028F6D10120E5E7034B1B7EFF2BF9D0D9E7101A01003D
:20536000D81D002008B5074AD379012B06D800220320114601F0A0F8002008BD013BD3712A
:205380000120FAE7D81D002008B501F0C7F900F04BFE01F06FF9FFF77BFF4FF48062094B0D
:2053A0001A800022084B1A821A86A3F85020A3F87020A3F89020A3F8B020A3F8D020A3F890
:2053C000F02008BD0E330020E822002070B5164C238833B3154E03F127013288914204DB6A
:2053E00001F08CF90024204670BD1149114D0978283AA97103F12801D21A294405F1280037
:205400000BF08AFC2088404200B201F041F904460028E8D031882846283989B20BF031FBF0
:20542000E1E70124DFE700BF10330020123300207F3B0020D81D002004282DE9F74F20D0CB
:20544000864B874D874903F13C0205282A600A60A9461C468A4654D1834A1268128A002A31
:2054600000F03C81002230332B600B607F4B80481A80804B02601A8008227F4B1A7000F0A3
:2054800003FB7A4D2988002900F02881734C01F13002784B083189B220461A800BF0F1FAD4
:2054A00060232380704B00261B68744F1A7D3988E2711122A2712A8828310832601852BAE5
:2054C0008280C6801A8A04F1180562525A8A42800FCB85E80F00294604F1080000F044FD81
:2054E0005F4B04F13C021A600BF003FAC0433B8880B228332344002800F06881D880668064
:205500007FE05C4D2B88272B40F2E880237803F0F003602B40F0E28020460BF0B6FA2B8882
:205520008342C0F0DB8020460BF0AFFA00F1280189B2B1F5A06F298000F2D0800023504ADF
:20554000204613700BF0CBFA002800F0C78004F12802801A227A494BFF2A1880984600F0CB
:20556000BD8001230DF10702298820460BF093FA48B19DF8073033B9FFF7B8FE012800F0AE
:20558000AD8002283DD03F4800F0ECFB00287BD13C4800F08DFC002876D1207E2389FF28F8
:2055A00048F2FE013AD0228B8A4200F013818B4236D07BB963896BB9A3895BB9E3894BB9E4
:2055C000238A3BB9638A2BB9A38A1BB9E38A002B00F084807AB9638B6BB9A38B5BB9E38BD7
:2055E0004BB9238C3BB9638C2BB9A38C1BB9E38CB3F5807F72D02B88B3F5A06F07D8FFF797
:20560000B1FE00221C4B1A7003B0BDE8F08F4FF4A0620021022000F04FFFF2E78B425DD157
:20562000238B7BB9638B6BB9A38B5BB9E38B4BB9238C3BB9638C2BB9A38C1BB9E38CB3F532
:20564000807F4BD0FF2849D00E4800F06BFB0246002843D102210120DDE700BFD81D0020E4
:20566000D8220020E0220020E422002014330020DC220020123300207E3B002010330020A2
:205680007F3B0020F01D00200023654E29883370012364480DF107020BF0FDF9074658B3B9
:2056A0009DF80730062B27D0112B00F096803A2B1CD10BF01BF94FF6FF7398420ED1B8F833
:2056C00000302833E2185178E05C00F0D3FE012801D101F013F82B88002B92D101F00EF850
:2056E00000234F4A1370504A13708DE72C2BF5D006D88BB12B2B29D03A1B012104208AE749
:205700003B2BEBD03C2BF7D1337898071BD55906F2D443F0400304E03378DA07ECD443F001
:20572000010338463370FFF7E1FD0128D6D002283FF467AF29883B1BC91A0DF1070200231A
:2057400089B23846A8E743F00203EAE733785A07D2D443F004033370FB78002BEAD0334B93
:20576000DB6B98470028C7D045E70A8A1AB93368203333604DE0B8F800302833E018408809
:205780009042F4D14A8A12B1E35A9342EFD10B682BB94B681BB98B680BB9CB682BB1102233
:2057A00058460BF09FFA0028E1D12B880220303B2B8000231E4A1F49C9F800200B60CAF8F1
:2057C000002019491C4A0870138058E64FF6FF72DA8094E6934281D136E7FFF7F7FDB8F830
:2057E00000302344DB8D33B10BF083F84FF6FF7398427FF473AFB8F8003023445B8D002BD0
:205800003FF46CAF0D4F0E4EDFF838B0376007F580773168B942A8D3002204211BE700BF22
:205820007D3B0020D81D00207E3B0020101A0100081E0020DC22002014330020E822002082
:20584000E4220020E01D0020054BC0F3072203EA0023000C40BA134380B240EA0340704717
:2058600000FFFF0013B5044601460120FCF738FF38B92046054BDB68019302B0BDE8104061
:20588000184700F03BFF002002B010BD001A0100002108B50846FCF723FF024618B9022148
:2058A0000348FCF7ADFABDE8084000F027BF00BF9C07002070B5364E88B033882BB3B3F59C
:2058C000A06F14D8334C238B6BB9638B5BB9A38B4BB9E38B3BB9238C2BB9638C1BB9A38C61
:2058E0000BB9E38C1BB12C4D6B6B984710B900F005FF0AE0237EFF2B45D0284800F032FA68
:2059000028B133880BB100F04BF808B070BD2B6C04A89847002832D1204800F003FA80BB42
:205920001E480BF03CF80646E8B900F08FF904460028DCD020460AF0DFFF054678B921462E
:2059400002A80BF064F80623019500932A46012302A9204600F0CEF805460028C7D0284621
:2059600000F0E8F810E00BF018F804460028E1D13046EB6C984730460BF013F8B7E704ACC2
:20598000D8E7064CD6E70020FFF76CFFAFE700BF12330020D81D0020101A0100F01D002091
:2059A00008B50120FFF748FD034B1B881BB1BDE80840FFF77FBF08BD1233002038B504468F
:2059C00023881046002B3ED0B3F5507F49D1022932D006D8012927D04FF450730120238006
:2059E00038BD872907D08829F6D1204B9A420FD10AF0CCFBF0E700211D4B03F580729D697B
:205A00002033A84208BF23F8101C9342F7D3E3E7184B9A42E0D10AF0B9FB0028DCD000F070
:205A20007FFAFFF747FFD7E7002AD5D0124B05201A60FFF701FDF4E7104B1B88002BCBD095
:205A4000FFF7AEFFC8E7FCF759F90D4B4021187006480AF089FBFFF797FC0A4B5B68984722
:205A6000BAE7002303202380BAE700BFE8230020E8220020C4250020E42200201233002053
:205A8000883B0020101A0100074B1B683BB12833186840B15A68054B1978FCF7B1B9044B1C
:205AA0001B681833F4E77047DC220020883B0020E422002010B5044640B1054B9B6C984729
:205AC0002146BDE810400348FDF7A0B810BD00BF101A0100AC07002008B5FCF7EDFDBDE80A
:205AE000084002490248FCF78FBF00BFB55A0000AC07002070B504461E469DF81020059BAF
:205B00000A48FCF7D9FF054670B120462B4604F1100250F8041B904243F8041BF9D1044B72
:205B20006E7428469B6C9847284670BDAC070020101A010001460148FDF78EB8AC070020F9
:205B40000148FCF79DBF00BFAC07002001460148FCF772BFAC070020014601480AF05BBCF3
:205B6000AC07002008B504480AF03EFBBDE8084002480AF08FBB00BFBC070020F8230020BE
:205B800038B505460A480AF088FB044600B938BDAC4209D1214606480AF089FB2146BDE8FF
:205BA000384004480AF044BB20460AF0AFFBECE7F8230020BC07002038B5054610B9002408
:205BC000204638BD08480AF068FB04460028F6D010222946201D0BF085F80028F0D02046E1
:205BE0000AF094FBF1E700BFF8230020F8B50E46054610B900242046F8BDFFF7DDFF0446DA
:205C000048B910480AF000FB04460028F2D001460D480AF06CFB2B46251D03F110072A46D7
:205C200018685968083303C2BB421546F7D13EB1314604F114000AF0AFFA00232377DAE773
:205C40000123FBE7BC070020F823002038B50A480AF023FB002504460CB9284638BD251DF0
:205C600028460AF049FE10B1437C002BF5D120460AF04CFB0446EFE7F823002038B50D48C0
:205C80000AF00BFB04460B4D04B938BD237F63B904F11400FCF7C6FA38B12046FFF770FF82
:205CA00028460AF0FAFA0446EEE720460AF02EFBF9E700BFF823002000487047363400207D
:205CC0002DE9F341154D0446CDE900150E4690461F4620220346032111480AF063FE0128E8
:205CE0002B4618D12A6804F11001107020462A68023250F8044B884242F8044BF9D11868D2
:205D0000089B86744361099B80F813800777836102B0BDE8F0810020FAE700BF4424002021
:205D20006425002070B506460C4D0D4C256060352068A84201D3002070BD03781BB9236810
:205D400020332360F4E7827C3146D20802300AF0C9FF0028F3D10120EEE700BF6425002005
:205D600044240020802313B5074C0093019403462022032105480AF015FE10B9206802B0A9
:205D800010BD0020FBE700BF3C2400206024002030B548F2FE040B490B4A1160603113680A
:205DA0008B4202D30023184630BD1D783DB1451C02D09D7C854202D15D88A542F3D0203388
:205DC0001360ECE7602400203C240020802337B50F4D0093044603460195122207210D4801
:205DE0000AF0E0FD01282B460FD12A6804F11001107020462A68023250F8044B884242F873
:205E0000044BF9D1186803B030BD0020FBE700BF40240020E42400208023F7B5214C00938D
:205E2000054603460E4617460194202203211E480AF0B8FD012832D12A46236805F11001DF
:205E400018702368023352F8040B8A4243F8040BF9D12068C774DEB901230375012223681D
:205E600012489A7440F2FF230380002343808380C38003814FF480734381FF2303736B7BBB
:205E80004373EB89C381FFF7A1FF206803B0F0BD00233146037518300AF07EF9DEE7002066
:205EA000F4E700BF3C2400206024002046340020802313B5074C00930194034612220721FF
:205EC00005480AF06FFD10B9206802B010BD0020FBE700BF40240020E424002038B505469A
:205EE000C8B140F2FF230C48002403804FF480734381FF230373EB7B448043732B8A8480AF
:205F0000C4800481C381FFF7D3FF044A106008B10AF06EFD2C7038BD463400204024002021
:205F200038B50E4D0E4C256060352068A84206D3FFF7A4FEBDE838400A480AF01EB9037807
:205F400043B1037D33B91830FCF76CF910B12068FFF7C4FF236820332360E6E7602400206D
:205F60003C240020C42500202DE9F84F48F2FE030A8805469A420F462ED00A78FF2A2BD04E
:205F800000241C49A04689469B461B4A0A6002F1600AD9F8006056450AD314BB2C806C80A6
:205FA000AC80EC802C816C81AC81EC81BDE8F88F33786BB1B37C012B0AD173885B4507D07A
:205FC000B11C38460AF02EFD80459CBF344680462036C9F80060DCE70120FFF7D9FE04467F
:205FE000DBE7A31C123453F8042BA34245F8042BF9D1DBE73C2400206024002070B5094EE3
:20600000B0684508FAF728FD0446FAF725FD2402B268A4B22044B0FBF2F302FB13002844A2
:2060200070BD00BF4824002073B53E4B1A88B2B95A88A2B99A8892B9DA8882B91A8972B915
:206040005A8962B99A8952B9DA8942B9FD215A8019809A80DA801A815A819A81DA81324C47
:20606000FFF73AFDFFF77EFD602200212F480AF06CFE00214FF48E7220460AF066FE20229A
:206080002B4B40261A7018222A4B26711A704FF4A06323604EF66023A360FFF7AFFF4FF450
:2060A0007A730025236148F2FE03E0602575224C2A46238065802B46A580E5803146CDE9A7
:2060C00000552046FFF7FCFD20461C490AF094FC294601222046FFF79FFE40F2FF264FF49C
:2060E00080732046E38126806580A580E58025816581A581FFF76AFE4FF4007320462680FC
:206100006580A580E58025816581A581E381FFF75DFE4FF4F0510A4802B0BDE870400AF0D2
:2061200023B800BF3634002048240020642500208B3B00208C3B002046340020803B0020C4
:20614000C42500201FB50C46074B01469B69684698471022214668460AF0C4FDB0FA80F0CA
:20616000400904B010BD00BF101A010070B506460B480D460AF091F8044608B9204670BD33
:206180001DB920460AF0C2F8F6E7A3689E42F8D129462046FFF7D6FF0028F2D0EEE700BF60
:2061A000D425002030B505460C460E4B85B05B696846984721462846FFF7D8FF69460446CA
:2061C0002846FFF7D3FF11234CB1844201D0013B03D1231A5842584102E06469F4E7204651
:2061E00005B030BD101A01002DE9F843904606460F469946FFF7BAFF414604463046FFF73F
:20620000B5FF0546B8F1000F0DD060B902464FF0FF3341463046FFF7E7FF054618B90024FF
:206220002046BDE8F8837CB9154809F0EDFF04460028F4D000230146436112480AF04AF887
:20624000114A1368013313600822C4E90196B91804F10C000AF055FD39463046FFF7A2FFA9
:2062600058B1D4F81480394665613046FFF79AFF0028D5D1C4F81480D2E76561D0E700BF58
:20628000C8070020D425002058270020002208B5044B05481A6009F0A7FFBDE8084003488B
:2062A00009F0F8BF58270020C8070020D42500202DE9F8430546184809F0EFFF0446164EF6
:2062C000DFF85C80154F0CB9BDE8F88320460AF01DF863688146B3B9304609F0DEFF60B9EA
:2062E0002146304609F0E3FF2146404609F0A0FF3B68013B3B604C46E5E74369A342EFD039
:206300000AF004F8EBE75A1CF5D0AB4294BF00235B1B6360EFE700BFD42500205827002091
:20632000C80700202DE9F0410D4809F0B6FF04460B4E0C4F0C4D0CB9BDE8F081204609F093
:20634000E5FF80462146304609F0B1FF2146384609F06EFF2B684446013B2B60EBE700BF4D
:20636000D4250020C8070020582700202DE9FF476C46154DDFF8589005F108030FCB95F8DF
:20638000078084E80F00FFF721F8104809F085FF0646DFF840A026B900F0B0F904B0BDE843
:2063A000F087776857B1B9F80030BAF800202C3B2C329BB22A4441462046B847304609F0F1
:2063C000A5FF0646E7E700BFD81D00205C2700201233002010330020F8B5204B204E1B79A6
:2063E00006F11805F371337E06F10804FF2B19D194E80F0085E80F0029462046FFF7B4FDDA
:20640000FEF7E4FF8121174C23882833F218F152002353800AF06AFAC0432388124A134497
:206420005880F8BD2746114A3B4603CBAB42106051601F4602F10802F6D195E80F0084E889
:206440000F000A4B0A4C03F11005224618685968083303C2AB421446F7D1D1E7482400207D
:20646000D81D002010330020001E002056340020F01D002038B504460B480D4609F00DFFAD
:2064800008B901200FE00379A34204D143799D4204D0FF2B02D009F039FFF1E78368002B6B
:2064A000EFD09847002038BD602700200146014809F010BF602700202DE9F84F424B8246D1
:2064C0001B7889463A2B934609D1404B1A88404BD356002B03DBBDE8F84F00F00FB93D4C2B
:2064E000238973B9638963B9A38953B9E38943B9238A33B9638A23B9A38A13B9E38A002B29
:20650000E9D0237AFF2BE6D0334D344B05F110063746A8461B6B9847314A2B4603CBB342BB
:20652000106051601D4602F10802F6D12D4E002332882849303292B2B2F5A06F28BF4FF4C4
:20654000A062224D328001F13000303A2B800AF0E3FB602323603A23A371234B1B79E3713C
:20656000224B0FCB88E80F001D4B1B78FF2B05D1BAF1040FAFD1B9F1020FACD118491B4820
:20658000FFF7F2FCB5F80080584608F12803E21804F803A082F80190FFF756F93188144B27
:2065A000283943F8080089B2A3F12C000AF069FA00222B883B445A800AF098F9C0432B8870
:2065C0001F447880BDE8F88F7F3B002010330020001E0020D81D0020F01D0020101A01004C
:2065E000563400201233002048240020E01D0020041E00202DE9F04117466022194C0646CA
:2066000022603A22A271184A9DB212798846291DE27189B220460AF034FA0EB310223146B3
:2066200004F11800114E0AF06CFB04F1180104F10800FFF799FC33882C35283303F8048001
:206640001A190023577053800AF050F9C04333881C44074B60851D80BDE8F041FFF72AB966
:20666000BDE8F081D81D002048240020103300201233002008B50448FFF718FFBDE8084098
:206680000248FFF713BF00BFE0070020D407002010B509490B881A18B2F5A06F0AD8074C60
:2066A0002288C24206D480B20244184408800120228010BD0020FCE712330020103300209B
:2066C000B0F5A06F9DBF024B18800120002070471233002005289ABF024B33F8100000203A
:2066E000704700BF663400200C22024902480AF008BB00BF72340020663400200023044A3A
:206700001380044A1380044A1370FFF7EDBF00BF12330020103300207F3B002010B5064C1A
:206720000C22002120460AF010FB002323814FF6FF73238010BD00BF7234002070B5154DA5
:2067400004462A780E46BAB9FFF7B6FAACB9124B00F1100250F8041B904243F8041BF9D1BE
:206760008EB90E490C480AF047F9012200210A48FFF752FB01232B7070BD08222146064849
:206780000AF0BFFAECE708220548B1180AF0B9FAEBE700BF9D3B00207E340020803B002050
:2067A0008634002037B500210846FFF7C7FF00231C46154901F11A005A18157E55B192F864
:2067C0002A50012D06D1957EFE2D02D1D27E802A00D0C4182033602BEED12046FFF7C2FACE
:2067E00004B968B100F0CAFC4023024600930020214601F075FE01F0C3FC002003B030BD74
:206800004FF0FF30FAE700BF48240020044B187B28B1B3F84A00DB8AC31A58425841704702
:206820002C28002008B50A48037B63B1094B0A491B88407B2C335A185B5C984203D1D178BF
:20684000907801F025FEBDE80840FFF757BF00BF2C28002010330020D81D00202DE9F04131
:20686000394E8EB02622002104A80AF06EFA374D3288374B297BD25C8DF8322089B3697B53
:2068800091422ED1E846A3F12C04243B0FCB88E80F00102200210DEB02000AF056FA33882A
:2068A00003F12C0214442B4A1678E2782C3EF61A2B7EF6B28DF833306378ADF830208DF8F9
:2068C00035305B0612D51022211D05F11C000AF009FA30B91425AE420ADC04A9404601F070
:2068E000B1FDFFF70BFF0EB0BDE8F0810425F2E7625D32B363195F78052A07F1020703D01A
:20690000062A13D03D44E6E7DB781022002108A88DF834300AF019FA9DF83420291D073262
